:020000022000DC
:1060000000000120B5620200DD620200DF620200D2
:10601000E1620200E3620200E562020000000000AB
:10602000000000000000000000000000E762020025
:10603000E962020000000000EB620200ED62020073
:10604000D9C40200EF62020011890200298E020009
:10605000EF620200EF6202003DC50200EF62020043
:10606000EF620200EF620200EF620200EF620200E4
:10607000EF620200EF620200EF620200EF620200D4
:10608000EF620200BDA20200EF620200EF620200B6
:10609000EF620200EF62020045230300EF6202009C
:1060A000EF620200EF620200EF620200EF620200A4
:1060B000EF620200EF62020000000000000000003A
:1060C000EF620200EF620200EF620200EF62020084
:1060D000EF620200EF620200EF62020000000000C7
:1060E00000000000000000000000000000000000B0
:1060F00000000000000000000000000000000000A0
:10610000000000000000000000000000000000008F
:10611000000000000000000000000000000000007F
:10612000000000000000000000000000000000006F
:10613000000000000000000000000000000000005F
:10614000000000000000000000000000000000004F
:10615000000000000000000000000000000000003F
:10616000000000000000000000000000000000002F
:10617000000000000000000000000000000000001F
:10618000000000000000000000000000000000000F
:1061900000000000000000000000000000000000FF
:1061A00000000000000000000000000000000000EF
:1061B00000000000000000000000000000000000DF
:1061C00000000000000000000000000000000000CF
:1061D00000000000000000000000000000000000BF
:1061E00000000000000000000000000000000000AF
:1061F000000000000000000000000000000000009F
:1062000010B5054C237833B9044B13B10448AFF3F0
:1062100000800123237010BD28230020000000000F
:10622000808B030008B5034B1BB103490348AFF350
:10623000008008BD000000002C230020808B03009C
:10624000154B002B08BF134B9D46A3F5803A002148
:106250008B460F461348144A121A0FF0A5FA0F4B3B
:10626000002B00D098470E4B002B00D09847002001
:10627000002104000D000D48002802D00C48AFF3A7
:1062800000800FF041FA200029000CF0E3F90FF034
:1062900027FA00BF000008000000012000000000F5
:1062A00000000000282300204061002000000000C2
:1062B000000000000649074A074B9B1A03DD043B18
:1062C000C858D050FBDC03F0CDFCFFF7B9FF00004D
:1062D000E88C03005022002028230020FEE7FEE780
:1062E000FEE7FEE7FEE7FEE7FEE7FEE7FEE7FEE786
:1062F000F0B595B0002415460F4608461E4602F03C
:1063000009F9384623460895082205A91A9D0996D9
:106310000D950A948DF82C400C9402F05FF99DF8CD
:1063200014308DF81140DDE9061003F00302012A54
:10633000CDE9020127D0022A04D0384602F0EEF857
:1063400015B0F0BDBDF81650C3F3C2038DF8103080
:10635000AD090826082D2C4628BF082433462246BE
:106360000EA9384602F03AF92D1B214608AB02AAC5
:106370000EA8264400F0F8FF002DEBD1384602F0BD
:10638000CDF815B0F0BDBDF81460059DC6F38316B9
:10639000C3F3C204B2000EA9384608238DF810409A
:1063A000C5F3952502F01AF908AB324628460EA926
:1063B000009302AB00F062FF384602F0AFF815B070
:1063C000F0BD00BF08B500F07DF80421034800F0DF
:1063D000C5FE034B01225A7108BD00BFD08C0300DB
:1063E00050220020014B01221A70704788230020A0
:1063F000704700BF00B583B0044B0093044A4023AC
:10640000FFF776FF03B05DF804FB00BF15640200E0
:106410004823002038B50E480E4D03780E4CEB5C37
:106420000025D2B2257053B1043003F0C1FB58B936
:106430000A4B1B7813B12378002BFCD038BD0C30ED
:1064400003F038F90028F3D001F00CF8F0E700BFB2
:10645000582200205051002088230020442300208F
:1064600030B51448144A0378D35C89B0BBB104300A
:1064700003F01CFB114D0FCD6C460FC495E80F00C7
:10648000062584E80F00002269460A48009502F0BC
:1064900001FA40B90A4B00221A7009B030BD0C3025
:1064A00003F0A2F8E6E700F0DDFF054B00221A70CA
:1064B00009B030BD5822002050510020CC600300AC
:1064C0004423002030B50E4D0FCD89B06C460FC46B
:1064D00095E80F00062584E80F000A4A0A4800954F
:1064E000694602F0D7F920B9084B01221A7009B0A9
:1064F00030BD00F0B7FF054B01221A7009B030BD66
:10650000CC600300E56302005822002044230020F1
:1065100038B50C4B0C48002400250022FF21C3E9AC
:106520000045C3F81824996083F82024C3F8142484
:1065300001F0A2FF044610B9044802F083F8204697
:1065400038BD00BF60240020F48B0300F860030016
:10655000A9B1124B12495B1ADB081AD030B4114CA6
:106560002288824217D0002203E034F8225085426C
:106570000AD001329342F8D1002030BC7047084A5B
:1065800002EBC0021068704701EBC202106830BC19
:106590007047184670470A46F8E700BFD08C0300E2
:1065A000088C030024230020094B013903EBC000B1
:1065B00003290BD8DFE801F0020806040220704727
:1065C0004079704700797047042070470020704779
:1065D000088C03002DE9F047974CD4E900239A4238
:1065E00084B063D00023C4F81834BFF34F8FD4E9CC
:1065F000013503EA0501CA1C04EB820614F82220C7
:10660000500719D52768327802F00302012A43D0D7
:10661000022A03D17288023303EB921305EA0301C5
:10662000D4F81804CA1C04EB820628B99F4239D951
:1066300014F822205207E6D404EB81015A1CC968E1
:1066400001912A4004EB820201F00301D268029218
:10665000022903F102062DD0012900F09580D4F81B
:1066600010543DB12B6828469B689847EB681D681D
:10667000002DF7D17148724B7249C01AC00800044E
:1066800040F0020000F0E4F8D4E90030C01A18BF6E
:10669000012004B0BDE8F08732880233C2F38312D0
:1066A0001344BBE7676004B0BDE8F087002004B086
:1066B000BDE8F087BDF8063063484FEA9319B9F199
:1066C000500FC84628BF4FF0500868F38F1308F1E9
:1066D0000801ADF8063001F0D1FE07460028BED013
:1066E00025EA060A0AF1010A01F014FF4FEA8A0AB4
:1066F0000023082201A9384601F03CFFD0457ED98D
:10670000BAF1000F00F08E8005EA06010331A8EB14
:106710000A0504EB8101082352463846EDB201F028
:1067200029FF2A460AF108034849384601F022FFAA
:1067300009F1030906EB9909D4F81834002B6DD13F
:10674000D4F8105465B1EB685A7928463946002AC6
:1067500060D02B681B689847EB681D68002DF2D14C
:10676000384601F0DBFE00230DF103008DF8033005
:1067700001F00CF9D4F818340BB9C4F804909DF862
:10678000030001F029F97FE7BDF804202E48C2F389
:106790008313062B28BF062363F389120233990063
:1067A000ADF8042001F06AFE074600283FF457AF19
:1067B00001F0B0FE0023082201A9384601F0DAFEFC
:1067C000BDF8043013F4707F33D04FF0000805EAB1
:1067D00006014FEA88030331083304EB81010422E8
:1067E000384601F0C7FEBDF8043008F10108C3F3D4
:1067F000831306F1010943454E46E8D89CE705EAB4
:106800000601033104EB810142460823384601F0BA
:10681000B1FE8DE71D68002D95D1A1E7384601F046
:106820007DFE31E7424608230849384601F0A2FEC2
:106830007EE7B14680E700BF60240020388C03006B
:10684000088C030004610300F48B03006C24002017
:106850002DE9F04F674C87B0002380460DF10B0007
:106860008DF80B300191A56801F090F8D4E901236F
:1068700026681A440132921B012A00F2B98004F200
:106880001C4704F214490121384601F0F7F85A4830
:1068900001F018F9484601F015F9D4E9013E03EA80
:1068A0000E00C21C04EB820114F8222012F0040234
:1068B00000F09B8003F1020C91F800B00BF0030B89
:1068C000BBF1010FE24600F08B80BBF1020F00F13B
:1068D000030B75D004EB8B01002AEDD104EB800093
:1068E0000133C268039203EA0E0304EB830302F050
:1068F0000302012AD9685BD0022A56D1BDF80E30B6
:106900009B0903334FEA114B0AEB930A484601F007
:10691000E5F85946002846D03846C4F804A001F0EE
:10692000ADF8D4E90113226819440131891A01290B
:10693000A9D913400333023205219DF80B0044F816
:106940002310226001F048F800212C4801F05CF887
:1069500080F31000731C2B4004EB830300043540CC
:10696000033540EA1840D86014F8253068F3C503B1
:1069700004F82530019B54F8252063F39F2222F46C
:10698000717323F0030343F0010344F8252024F836
:10699000253094F820341BB1FFF71CFE0028FBD1F2
:1069A00007B0BDE8F08F3846B9E74FF0000BADE710
:1069B000BDF80C30C3F383134FEA114B9A44A5E79B
:1069C0004B880CEB93130EEA0300C11C03F1020C7D
:1069D00014F82120E24604EB810102F004027BE777
:1069E0000B88C3F383136344EDE703F1020A75E7F1
:1069F00032469EE760240020782800207C28002072
:106A00002DE9F04F6B4C87B0002380460DF10B0051
:106A1000CDE900128DF80B30A56800F0B7FFD4E97E
:106A2000012326681A440132921B022A00F2BF8019
:106A300004F21C4704F214490121384601F01EF803
:106A40005D4801F03FF8484601F03CF8D4E9013ECA
:106A500003EA0E00C21C04EB820114F8222012F09B
:106A6000040200F0A18003F1020C91F800B00BF0D9
:106A7000030BBBF1010FE24600F09180BBF1020F66
:106A800000F1030B7BD004EB8B01002AEDD104EB6A
:106A900080000133C268039203EA0E0304EB830310
:106AA00002F00302012AD96861D0022A5CD1BDF844
:106AB0000E309B0903334FEA114B0AEB930A484609
:106AC00001F00CF8594600284CD03846C4F804A010
:106AD00000F0D4FFD4E90113226819440131891A66
:106AE0000229A9D913400333033245219DF80B0035
:106AF00044F82310226000F06FFFB31C2B4004EB1E
:106B00008303019A2D48DA60002100F07DFF80F3B5
:106B10001000731C2B4004EB830300043540033545
:106B200040EA1840D86014F8253068F3C50304F82B
:106B30002530009B54F8252063F39F2222F47173C3
:106B400023F0030343F0410344F8252024F82530C3
:106B500094F820341BB1FFF73DFD0028FBD107B0AE
:106B6000BDE8F08F3846B3E74FF0000BA7E7BDF85C
:106B70000C30C3F383134FEA114B9A449FE74B88C1
:106B80000CEB93130EEA0300C11C03F1020C14F882
:106B90002120E24604EB810102F0040275E70B8834
:106BA000C3F383136344EDE703F1020A6FE7324650
:106BB00098E700BF60240020782800207C2800206F
:106BC0002DE9F04F6F4C89B0002680460DF113007F
:106BD000CDE9011203938DF81360A56800F0D6FE8D
:106BE000D4E9012326681A440132921B032A00F2D9
:106BF000C68004F21C4704F214490121384600F013
:106C00003DFF614800F05EFF484600F05BFFD4E9BD
:106C1000013E03EA0E00C21C04EB820114F822209C
:106C200012F0040200F0A88003F1020C91F800B009
:106C30000BF0030BBBF1010FE24600F09880BBF1B3
:106C4000020F00F1030B00F0828004EB8B01002A9D
:106C5000ECD104EB80000133C268059203EA0E0315
:106C600004EB830302F00302012AD96867D0022AE9
:106C700062D1BDF816309B0903334FEA114B0AEB82
:106C8000930A484600F02AFF5946002852D0384659
:106C9000C4F804A000F0F2FED4E9011322681944FC
:106CA0000131891A0329A8D91340033304328521FD
:106CB0009DF8130044F82310226000F08DFEB21CF2
:106CC0002A40F31C2B4004EB820204EB8303029F57
:106CD000D7600021039A2D48DA6000F095FE80F31A
:106CE0001000731C2B4004EB830300043540033574
:106CF00040EA1840D86014F8253068F3C50304F85A
:106D00002530019B54F8252063F39F2222F47173F0
:106D100023F0030343F0810344F8252024F82530B1
:106D200094F820341BB1FFF755FC0028FBD109B0C3
:106D3000BDE8F08F3846ADE74FF0000BA1E7BDF896
:106D40001430C3F383134FEA114B9A4499E74B88ED
:106D50000CEB93130EEA0300C11C03F1020C14F8B0
:106D60002120E24604EB810102F004026FE70B8868
:106D7000C3F383136344EDE703F1020A69E7324684
:106D800092E700BF60240020782800207C280020A3
:106D90002DE9F04F724C89B0002680460DF11300AA
:106DA000CDE9011203938DF81360A56800F0EEFDA4
:106DB000D4E9012326681A440132921B042A00F206
:106DC000CC8004F21C4704F214490121384600F03B
:106DD00055FE644800F076FE484600F073FED4E9A4
:106DE000013E03EA0E00C21C04EB820114F82220CB
:106DF00012F0040200F0AE8003F1020C91F800B032
:106E00000BF0030BBBF1010FE24600F09E80BBF1DB
:106E1000020F00F1030B00F0888004EB8B01002AC5
:106E2000ECD104EB80000133C268059203EA0E0343
:106E300004EB830302F00302012AD9686DD0022A11
:106E400068D1BDF816309B0903334FEA114B0AEBAA
:106E5000930A484600F042FE5946002858D038466A
:106E6000C4F804A000F00AFED4E901132268194412
:106E70000131891A0429A8D9134003330532C521E9
:106E80009DF8130044F82310226000F0A5FDB01C0B
:106E90002840F21C2A4004EB8000331D029FC7608B
:106EA0002B4004EB820204EB8303039FD760002195
:106EB000129A2D48DA6000F0A7FD80F31000731CD1
:106EC0002B4004EB830300043540033540EA1840AF
:106ED000D86014F8253068F3C50304F82530019B09
:106EE00054F8252063F39F2222F4717323F00303E7
:106EF00043F0C10344F8252024F8253094F82034C9
:106F00001BB1FFF767FB0028FBD109B0BDE8F08F8C
:106F10003846A7E74FF0000B9BE7BDF81430C3F3EA
:106F200083134FEA114B9A4493E74B880CEB93136E
:106F30000EEA0300C11C03F1020C14F82120E24602
:106F400004EB810102F0040269E70B88C3F38313A9
:106F50006344EDE703F1020A63E732468CE700BFC2
:106F600060240020782800207C2800202DE9F04FA4
:106F7000774C89B0002680460DF11300CDE901124F
:106F800003938DF81360A56800F000FDD4E9012398
:106F900026681A440132921B052A00F2D68004F2B8
:106FA0001C4704F214490121384600F067FD694886
:106FB00000F088FD484600F085FDD4E9013E03EA73
:106FC0000E00C21C04EB820114F8222012F004020D
:106FD00000F0B88003F1020C91F800B00BF0030B45
:106FE000BBF1010FE24600F0A880BBF1020F00F1F7
:106FF000030B00F0928004EB8B01002AECD104EB30
:1070000080000133C268059203EA0E0304EB830398
:1070100002F00302012AD96877D0022A72D1BDF8A2
:1070200016309B0903334FEA114B0AEB930A48468B
:1070300000F054FD5946002862D03846C4F804A038
:1070400000F01CFDD4E90113226819440131891AAA
:107050000529A8D913400333063240F205119DF8E3
:10706000130044F82310F71C226000F0B5FCB11C9B
:1070700029402F40321D731D2B402A4004EB810113
:1070800004EB870704EB820204EB830C0298039B5A
:10709000C860FB60129BD3600021139B2E48CCF884
:1070A0000C3000F0B1FC80F31000731C2B4004EB9B
:1070B000830300043540033540EA1840D86014F8D3
:1070C000253068F3C50304F82530019B54F82520CA
:1070D00063F39F2222F4717323F0030343F480735C
:1070E00043F0010344F8252024F8253094F8203497
:1070F0001BB1FFF76FFA0028FBD109B0BDE8F08F94
:1071000038469DE74FF0000B91E7BDF81430C3F30C
:1071100083134FEA114B9A4489E74B880CEB931386
:107120000EEA0300C11C03F1020C14F82120E24610
:1071300004EB810102F004025FE70B88C3F38313C1
:107140006344EDE703F1020A59E7324682E700BFE4
:1071500060240020782800207C280020F0B41B4EFA
:10716000D6F810340746002B2DD0DC682579002195
:107170008D42084617D0234603E0DB681A798A421D
:1071800011D01B68002BF8D1FB681871D6F81034A9
:107190009BB1DA68FB6812681A60D6F81034DB68B5
:1071A0001F60F0BC7047092901F1010301D01946A5
:1071B000DEE74FF0FF30F0BC7047C6F81074FA6895
:1071C0001360F0BC70471846DEE700BF6024002063
:1071D00038B5094BD3F81044012583F820544CB13D
:1071E000E3685D71236820465B689847E3681C6824
:1071F000002CF5D138BD00BF6024002030B5C38815
:1072000083B004460D4613BB217A05291DD0637A4D
:10721000A08873B9124B53F821400021FFF798F969
:10722000104903462246284603B0BDE8304000F02E
:10723000CDBCFFF7B9F90C4B0C4953F82020284678
:1072400000F0C4FC217AA088E4E703B030BD084A0E
:1072500000920849084A284600F0B8FCD4E700BF6D
:107260008C610300806103001C61030084770300CC
:107270007861030060610300586103002DE9F04369
:1072800085B01D460C9C002381460E46174694F897
:107290000C80237321462846FFF7B0FF062F09D83C
:1072A000DFE807F0042E343B444F1F0049462046D8
:1072B00000F08CFC2B7A052B05D06B7A5BB9274943
:1072C000204600F083FC204600F074FC84F80C801B
:1072D00005B0BDE8F083224A2249204600F076FC42
:1072E000EDE7D6E90413F2680393B3680291CDE9A0
:1072F00000324946D6E90023204600F067FCD9E772
:1073000032684946204600F061FCD3E74946D6E999
:107310000023204600F05AFCCCE7B36800934946AE
:10732000D6E90023204600F051FCC3E7D6E902323B
:10733000019200934946D6E90023204600F046FC1E
:10734000B8E7D6E90321B3680291CDE90032494696
:10735000D6E90023204600F039FCABE75461030076
:107360007861030084770300082900D970472DE96C
:10737000F04F1D4683B000241B7B2C7307460E463E
:107380001046294691460193DFF8C8A0DFF8C8806F
:10739000FFF734FF05E03A5D013400F017FC082CDC
:1073A00009D0A64241462846F5D85146013400F09E
:1073B0000DFC082CF5D12249DFF8A0A0214CDFF804
:1073C000A080284600F002FC4FF0000B0EE012F8FF
:1073D000081011F0970F08BF2E22214628460BF106
:1073E000010B00F0F3FBBBF1080F10D05E4505D98F
:1073F00017F80B207E2AEAD92E22EEE751462846BE
:107400000BF1010B00F0E2FBBBF1080FEED199F894
:107410000830052B02D099F809305BB90A49284693
:1074200000F0D4FB284600F0C5FB019B2B7303B092
:10743000BDE8F08F054A0649284600F0C7FBEDE796
:107440004C61030050610300546103007861030044
:1074500084770300486103004061030088610300F2
:10746000E589030000B585B000230390194601AA01
:1074700044F20100CDE9013300F004F805B05DF8F5
:1074800004FB00BF10B572B6FFF7A2FEFFF7A2F82B
:107490000028FBD1104B114C1149E41AE4082404D4
:1074A00044F00100FFF7D4F90E4B1B68DB0700D551
:1074B00000BE44F002000C49FFF7CAF9BFF34F8F3A
:1074C0000A490B4BCA6802F4E0621343CB60BFF376
:1074D0004F8F00BFFDE700BF088C0300388C03000E
:1074E000F8610300F0ED00E00462030000ED00E04D
:1074F0000400FA05D0E90223D1E90201994208BF4C
:1075000090422CBF01200020704700BF2DE9F04FB2
:1075100087B0074602F092FE40B1B74AD2E9003187
:1075200013F1807341F10001C2E9003100213846B6
:1075300002F0A0FEB14C60B1236853B1B04B256896
:107540001B7823B11DB12B7F002B40F01C81002341
:1075500023600121384602F08DFE002840F0F480BF
:1075600005A9A84804F0B6FA30B3A74DDFF8908219
:10757000A44E0378012B00F0C680002B00F0CB80D6
:10758000022B0FD128464FF0000904F0D5FE30B190
:1075900080F81C90284604F0CFFE0028F8D1012383
:1075A00088F8003005A9304604F0C4FA05A9304631
:1075B00004F090FA0028DCD1DFF84C82934E3BE0D7
:1075C000404604F0B9FED0E902B1054630460391C9
:1075D00002F060FE884B0399D3E9002312EB000907
:1075E00043F1000A8A4BD3E900239A4508BF91452D
:1075F00005D219F1807399464AF100039A46BBEB14
:107600000903009361EB0A030193DDE90023012ADA
:1076100073F100012ADBDFF8FCB15A456DD8AA6886
:107620004FF496030021304602F07CFD00285ED026
:107630000D281FD000232360404604F083FE2368FA
:1076400000287BD0002BBBD02368D0E90201D3E90E
:107650000223994208BF90424CD223681B7F002B23
:10766000AED02168404604F053FEA9E70021304621
:1076700002F0F4FD624B1B78002BDBD02B7F002B3C
:10768000D8D0304602F006FE5B49614BD1E900AB31
:10769000D3E900231AEB000A4BF1000B9B4508BF0E
:1076A00092455046594603D21AF180704BF10001C1
:1076B000D5E90223994208BF90425FD32B6903B9F1
:1076C0002B77D5E90530984729690029B2D02B7F5F
:1076D000002BAFD0D5E9022312EB010A43F1000BD6
:1076E000C5E902AB2946404604F012FEA2E7236832
:1076F000EBB1256007B0BDE8F08F304602F0CAFD5F
:1077000000EB0B028CE741682368994213D02846AE
:1077100004F01CFE46E743681A7F002A7FF442AF5C
:1077200001221A774168284604F0F2FD3AE738460C
:1077300002F0CAFCDDE70023236033E7002BD9D138
:10774000384602F0C5FCD5E73048314D02F0A2FDC5
:10775000294BD3E90089D5E9002318EB000A49F148
:10776000000B9B4508BF92455046594603D21AF17B
:1077700080704BF10001C5E90001F1E62946404661
:1077800004F0C6FD56E7214802F084FD1A4B20495B
:10779000D3E90023D1E9008912EB000A43F1000B81
:1077A000CB4508BFC2455046594603D21AF18070F6
:1077B0004BF10001D5E90223994208BF90422BD337
:1077C0002B6903B92B77D5E905309847296900293A
:1077D0003FF4BDAE2B7F002B3FF4B9AED5E90223B9
:1077E00012EB010843F10009C5E902892946064860
:1077F00004F08EFDABE600BF20290020A029002068
:107800002829002084290020186203006C2200200F
:1078100098290020FFFFB4002946024804F078FDB3
:1078200095E600BF1862030010B5134B13491B689F
:10783000134882B058220193082304F0D3F8044679
:1078400010B1204602B010BD0E4A0F4801A902F047
:10785000E3FB04460028F4D101210B4802F0E4FCCC
:1078600001231946094A084802F036FC084B012258
:1078700020461A7002B010BD146203002C290020AB
:10788000842900200D7502006C220020FFFF7F007C
:10789000282900204AB1A1F101010368B1FA81F160
:1078A0004909C3E90412002070470720704700BF50
:1078B000037F0BB1002070472DE9F048826182B050
:1078C00004461D480D4602F0E5FC1C4B1C49D3E95B
:1078D0000023D1E9006712EB000B43F1000CBC451B
:1078E00008BFB34503D21BF1807B4CF1000C1BEBAE
:1078F000050023694CF10001C4E9020103B12561CF
:1079000001A9104804F0A8F850B1002544600570A2
:1079100001A90C4804F0CEF830B902B0BDE8F088F7
:10792000042002B0BDE8F088034802F0B7FC284606
:1079300002B0BDE8F08800BF6C22002020290020A2
:10794000982900208429002030B5002583B0044602
:10795000057701A90B4804F07FF878B10123446052
:10796000037001A9074804F0A5F808B903B030BDB9
:10797000054802F093FC284603B030BD042003B054
:1079800030BD00BF842900206C22002070B4EFF3CA
:10799000108472B60D4B9A68AAB90D490D4E012597
:1079A0009D60D1F8805035401D60C1F88060D1F8ED
:1079B00084505D604FF0FF33C1F88430027004B929
:1079C00062B670BC704701230370F8E74451002091
:1079D00000E100E0FC06FFBD094B9A687AB170B97E
:1079E00010B4EFF3108172B6064A1C6814605C682C
:1079F0005460986001B962B65DF8044B70477047F7
:107A00004451002000E100E050E8002F0B4640E820
:107A1000003C9CF0000FF7D11046704750E8002F53
:107A200042EA010340E8003C9CF0000FF6D110460A
:107A3000704700BF50E8003F43EA010240E8002CD5
:107A40009CF0000FF6D11046704700BF50E8003F91
:107A500003EA010240E8002C9CF0000FF6D110462A
:107A6000704700BF50E8002F02EB010340E8003CE4
:107A70009CF0000FF6D11046704700BF50E8003F61
:107A800003EB010240E8002C9CF0000FF6D11046F9
:107A9000704700BF50E8003FA3EB010240E8002C14
:107AA0009CF0000FF6D11046704700BF012350E84C
:107AB00000CF4CEA030240E8002191F0000FF6D11C
:107AC00060467047012350E8002F42EA030C40E86B
:107AD00000C191F0000FF6D160467047002350E8D6
:107AE00000CF0CEA030240E8002191F0000FF6D12C
:107AF00060467047B8B130B4D0E90112521A046838
:107B0000D2B2531E2160DBB242B101680A685C1E2A
:107B1000551C0D601370E3B2FF2BF6D103680020F3
:107B2000187130BC70470E20704700BFF0B583B0AD
:107B3000044600250DF107008DF80750FFF726FFDA
:107B4000D4E900311A688A4210D9511E196021689F
:107B5000A3680F6812F8015C0A79268AE068DB1BCB
:107B6000DBB29A4206FB050538BF0B719DF8070092
:107B7000FFF732FF284603B0F0BD00BF30B5054621
:107B800083B000230DF107000C468DF80730FFF796
:107B9000FDFE2A681368591C1160E9682A8A641A74
:107BA000B4FBF2F41C709DF80700FFF715FF03B05B
:107BB00030BD00BF826842B110B504464369016818
:107BC000006998470023A36010BD70470EB400B54C
:107BD00082B0039921B104AB01AA019300F0B2F87D
:107BE00002B05DF804EB03B0704700BF2DE9F04F21
:107BF0008A4683B09245164605469846DDE90CB1A3
:107C0000C0F09C8053460127B3FBF6F39E4207F178
:107C10000107F9D9474538BF474611F00103AA6863
:107C2000009302D1BBF1000F68D1012403E008F1F9
:107C3000FF3806FB04F4B8F1010FF8D8BAFBF4F0F2
:107C40008642F6D9DFF8F8904FF00D0807E0B4420D
:107C5000B4FBF6F31CD3BAFBF3F0AA681C4619F880
:107C6000003029680A2B04FB10AA01EB020E02F176
:107C7000010028D0A8608EF80030D5E901329A4280
:107C8000E5D32846FFF796FFB4FBF6F3B442E2D201
:107C9000009BABB1BBF1000F12D0BB4510D9202423
:107CA000AB682A68591CA960D454D5E901329A42BC
:107CB0000BF1FF3B1ED2BBF1000F01D0BB45EFD152
:107CC00003B0BDE8F08FA86001F80280D5E901207B
:107CD000904204D22A6802EB000E0130CAE728461F
:107CE0000193FFF767FFAA682968019B501C01EB0D
:107CF000020EBFE72846FFF75DFFDCE78B0717D4CE
:107D00002024BB4591D92B68511CA9609C54D5E90E
:107D100001329A420BF1FF3B05D2BBF1000F84D038
:107D2000BB45F0D181E72846FFF744FFAA68F4E796
:107D3000B8F1000F0CBF30242024E2E7012769E7E7
:107D400030620300002900F0E8822DE9F04F05467B
:107D500085B091460C460E78DFF814A74FF00D0B56
:107D600013E0AB6828680A2E03F1010200EB03015F
:107D700000F02681AA600E70D5E901329A4280F0A7
:107D800011812678002E00F014810134002E00F0BD
:107D90001081252EE5D12146002711F8012B2D2A2F
:107DA00000F0E580302A00F0E6802B2A00F0D68033
:107DB0002A2A00F01181A2F13006F3B2092B03D96F
:107DC00022E2A3F130060146084606EB860310F8CE
:107DD000012BA2F13004092C02EB4303F1D92E2A26
:107DE00000F006814FF0000802F0FB03682B01F160
:107DF000010405D114F8012B02F0FB03682BF9D024
:107E0000253A532ABDD801A353F822F0A1810200DC
:107E1000837D0200837D0200837D0200837D02005A
:107E2000837D0200837D0200837D0200837D02004A
:107E3000837D0200837D0200837D0200837D02003A
:107E4000837D0200837D0200837D0200837D02002A
:107E5000837D0200837D0200837D0200837D02001A
:107E6000837D0200837D0200837D0200837D02000A
:107E7000837D0200837D0200837D0200837D0200FA
:107E8000837D0200837D0200837D0200837D0200EA
:107E9000837D0200837D0200837D0200837D0200DA
:107EA000837D0200837D0200837D0200837D0200CA
:107EB000837D0200837D0200837D0200837D0200BA
:107EC000837D0200837D0200837D0200837D0200AA
:107ED000837D0200837D0200B9810200837D020060
:107EE000837D0200837D0200837D0200837D02008A
:107EF000837D0200837D0200837D0200837D02007A
:107F0000837D02007F7F02001B810200837D0200CF
:107F1000837D0200837D0200837D02001B810200BD
:107F2000837D0200837D0200837D0200837D020049
:107F3000837D0200837D020093800200837D020026
:107F4000837D020039800200837D02001D800200D3
:107F5000837D0200837D0200B981020047F004079F
:107F60000C46214611F8012B2D2A7FF41BAF47F058
:107F700001070C46F5E747F002070C46F1E7D9F890
:107F800000301A1DC9F800201E78AB680A2E00F0D8
:107F90004C822A68591CA960D654D5E901329A420C
:107FA000FFF4EFAE2846FFF705FE2678002E7FF49B
:107FB000ECAE2B7B002B40F0218105B0BDE8F08FAB
:107FC000AA6000F803B0D5E901329A4280F00E8130
:107FD000296811440132CDE6D9F800301A1DC9F8DC
:107FE000002062781E682E2A04F102007FF4FAAEA7
:107FF0004A78A2F13003092B01464FF000083FF602
:10800000F3AE08EB880802EB480811F8012FA2F143
:108010003003092BA8F13008F3D9E5E6D9F8003090
:108020001A1DC9F8002019680197434600960A22D4
:108030002846FFF7DBFDA4E6D9F800301A1DC9F881
:10804000002017F00107D3F8008040F0EA80B8F173
:10805000000F03D040460DF087FC0746BE4240F2B9
:108060005D81002E00F05A81202102E0BE4200F026
:108070005581AA682B68501CA8609954D5E9012342
:10808000934206F1FF36F1D32846FFF793FD2021F6
:10809000ECE7D9F80020131DC9F80030AB68296857
:1080A0001768581C3022A860CA54D5E901239342AE
:1080B00080F0F1802A68581C7821A860D154D5E955
:1080C0000123934280F0E2800F2F03D93A46120930
:1080D0000F2AFCD84FF0805606E00F2E4FEA1613F9
:1080E0007FF64FAE1E46AB68B7FBF6F21AF8028079
:1080F0002868B8F10A0F06FB127700EB030103F1C1
:10810000010267D0AA6081F80080D5E901329A4265
:10811000E3D32846FFF74EFDDFE7D9F800301A1DFC
:10812000C9F80020196881EAE172A2EBE172092A1C
:108130004FF001000BDDDFF83CC300E01A46ACFB5A
:1081400002E3632A00F101004FEAD303F6DC404565
:10815000034638BF4346029307F00203002E57D070
:108160000029C0F29D80780700F19A80002B00F072
:108170009980B8F1000F40F095800029C0F2368157
:108180007B0700F1468107F00303022B00F0FD801E
:10819000CDE9006743460A222846FFF727FDF0E5B0
:1081A000AB682A68581C2521A860D154D5E9013252
:1081B0009A42FFF4E6ADF5E6D9F800301A1DC9F889
:1081C0000020196801974346009610222846FFF7C1
:1081D0000DFDD6E5AA6000F803B0D5E901329A4258
:1081E00080F093802B68991801328BE72846FFF7BF
:1081F000E1FCAB6829685A1C1944BBE5284605B068
:10820000BDE8F04FFFF7D6BC084600262146E6E55C
:108210002BB1B8F1000F00F02581FB07ADD400268B
:10822000ABE798F80020002A00F02081AB684746B1
:10823000C8F10101D5F800E00A2A01EB07080EEBAE
:10824000030C03F1010054D0A8608CF80020D5E99C
:108250000123934242D217F8012F002AEAD1464562
:108260007FF68FAD202702E046453FF48AADAA682D
:108270002B68511CA9609F54D5E901329A4206F13E
:10828000FF36F1D32846FFF795FCEDE72846FFF7C8
:1082900091FCAB6818E72846FFF78CFCAB6809E750
:1082A000013E63E7FA073FF568AF002EB7D0029BA7
:1082B0009E427FF662AF2023AA68501CA8602868FF
:1082C0008354D5E90102824206F1FF3680F0BC807A
:1082D000002EA4D0029A9642EED14EE72846029193
:1082E000FFF768FC17F8012F002AB8D0AB68029995
:1082F000A0E7A8600EF803B0D5E90130984260D23B
:108300002B6803EB000C01309EE72846FFF752FC78
:10831000A9682B684A1C1944F4E6704798F8006075
:10832000002E3FF42EADAB6828680A2E03F101023F
:1083300000EB030111D0AA600E70D5E9012393422E
:108340001BD218F8016F002E3FF41BAD28680A2ECF
:1083500003F1010200EB0301EDD1AA6000F803B0C4
:10836000D5E901329A4239D2296811440132AA6012
:108370000E70D5E901239342E3D32846FFF71AFC98
:1083800018F8016F002ECED1FBE4B8F1000F7FF496
:10839000FFAE002E68D0029B9E427FF6F9AE3023DE
:1083A000AA68501CA86028688354D5E9010282425B
:1083B00006F1FF364FD2002E56D0029A9642EFD1E8
:1083C000E6E62846CDE90221FFF7F4FBAB682A6810
:1083D000581C02EB030CDDE9022135E72846FFF7C4
:1083E000E9FBAB6829685A1C1944A4E7AA68531C26
:1083F000AB602B682D209854D5E901329A42C1F127
:108400000001FFF4C0AE28460391FFF7D3FB0399A8
:10841000B9E6AA68531CAB602B682B209854D5E9A9
:1084200001329A42FFF4AFAEEDE72A68591CA96009
:1084300002F803B0D5E901239342FFF4AAAD284620
:10844000FFF7B8FBAB68A4E528460391FFF7B2FB42
:10845000202303993CE728460391FFF7ABFB302329
:108460000399A8E7464688E6002691E69046F6E698
:1084700030620300CDCCCCCCFFF73CBB2DE9F04102
:10848000058ACF1C043D2F440646B7FBF5F7FFF7DE
:108490004DFB002834D0FFB24FF48073013F0446F7
:1084A000C580066083802CD08046002509E0637972
:1084B000AF4203F101036371C8F800000660804613
:1084C0001FD03046FFF732FB01350028EFD194F87A
:1084D00005802768B8F1010316D03D46013083427C
:1084E0002D68FBD1B8F1000F0AD0002601E03C4610
:1084F0003F68214601362846FFF740FBB045F6D8D5
:1085000000242046BDE8F08121463846FFF736FBBF
:10851000F6E700BF04300121FFF7B0BA2DE9F041C2
:10852000012104460430FFF7B5FAC0B208B1BDE836
:10853000F08194F805802568B8F1010314D02E4627
:10854000013083423668FBD1B8F1000FEFD000272D
:1085500001E02C462D68214601373046FFF70EFB1F
:10856000B845F6D8BDE8F08121462846BDE8F0417F
:10857000FFF704BB2DE9F8430546C6884079144649
:1085800006FB00F2043A04EB030C1F1D624538BFE2
:10859000D41ABE428846B7FBF6F106FB117002D82A
:1085A00001392D68FCD1371AA74228BF27469CB154
:1085B0004FF000090430E41B28443A4608EB090157
:1085C0000DF0E4F8A642B9442D6837464FF000009C
:1085D00028BF2746002CEDD1BDE8F8832DE9F843EC
:1085E0000546C6884079144606FB00F2043A04EBBF
:1085F000030C1F1D624538BFD41ABE428846B7FB24
:10860000F6F006FB107102D801382D68FCD1771AFC
:10861000A74228BF27469CB14FF0000904312944E6
:10862000E41B3A4608EB09000DF0B0F8A642B94445
:108630002D6837464FF0000128BF2746002CEDD1AA
:10864000BDE8F883826800239360826813618268C2
:1086500053618268D3608268536082681360704798
:1086600030B41F49A1F594728B1ADB1003EBD3735E
:108670005B10DD0052F83330984202EB050420D243
:10868000A24218D2ED1005EBD5756D1002EBC501B5
:1086900052F83530984205D310E052F83330984202
:1086A0000FD221468B1ADB1003EBD3735B108A4287
:1086B00002EBC304F1D30B4830BC704722460C4692
:1086C0001146984204D904F108028A42CCD3F2E759
:1086D0006068044B30BC002808BF1846704700BFD4
:1086E0007C6303004062030030B585B00478858860
:1086F0008DF800408468ADF804508DF80640C568D8
:10870000074A084B8DF80750D0E9040453F821308C
:1087100052F82110CDE902046846984705B030BDF3
:10872000A4290020AC2900202DE9F04F83460778CA
:108730003A4D3B4845F827300C46497B40F8272006
:1087400081B0164661B9374A002E3B4621460BF1EF
:10875000040008BF324601B0BDE8F04F00F06ABC2B
:108760002368314A4FF0A04503F5E07340F20C61F5
:1087700045F82310636803F5E0734FF0010845F8EE
:108780002310236808FA03F3C5F80835636808FA6C
:1087900003F3C5F80835236803F5E07340F20D6173
:1087A00045F82310636803F5E07342EA080945F8C9
:1087B00023104FF48070C8474FF0000A6268D5F864
:1087C0001035D340DB074FF4807022D4236808FAB9
:1087D00003F3C5F80C35C847236808FA03F30AF118
:1087E000010AC5F808354FF48070C847BAF1090F7F
:1087F000E4D1626801254FF0A04805FA02F2C8F8FA
:108800000C254FF48070C84763689D40C8F8085530
:1088100099E7BAF1000FEDD195E700BFA429002038
:10882000AC290020E98602007067030030B585B0EE
:10883000047845688DF80040D0E90240064A074BAD
:10884000039053F8213001958DF8084052F821101B
:108850006846984705B030BDB4290020B8290020EB
:1088600030B585B0047845688DF80040D0E9024005
:10887000064A074B039053F8213001958DF80840C4
:1088800052F821106846984705B030BDB429002041
:10889000B8290020F0B5194B0678194D0C6991F8EC
:1088A0001DE045F826408446164803F806E040F8E7
:1088B00026200C4617460FCC89B06D460FC594E8AC
:1088C0000F0085E80F000496BEF1000F0AD0002FBC
:1088D0000D4A69460CF1040008BF3A4601F002F85F
:1088E00009B0F0BD002F094A69460CF10C0008BF21
:1088F0003A4600F0AFFD09B0F0BD00BF5051002076
:10890000B4290020B82900202D88020061880200C7
:10891000014B1B68184700BFBC290020114B98422F
:108920001DD130B583B000230DF107008DF807305D
:108930000D46FFF72BF80C4B1C794CB901229DF822
:1089400007001D601A71FFF747F8204603B030BDDD
:108950009DF80700FFF740F8112003B030BD00205C
:10896000704700BF00200040BC290020034B984204
:1089700003D1034B00221A601A7170470020004097
:10898000BC2900202DE9F0418EB0974A00920022C8
:10899000C0F804210346D0F8040104900498C3F8F9
:1089A0002421D3F8240103900398C3F81C21D3F8A1
:1089B0001C0102900298C3F80821D3F80801019025
:1089C0000120019CC3F800224A6381F82F2018621D
:1089D00091F82D20824218BF98604A6B886A8242C3
:1089E00012D2486A825CC3F81C254A6B01324A6382
:1089F0000868E0B140F286228A608A68C3F80423DE
:108A000000200EB0BDE8F08191F82C20002A40F043
:108A1000A5800A6A12F0400F4FF0010214BFDA611C
:108A20005A61086818BF81F82D200028E2D1009A09
:108A3000002A3EDD01264FF0020817E0D3F824415A
:108A40004D6BD1F828C0002C5BD0C3F82421D3F89B
:108A500024210A920A9A5E6181F82F6065451BD035
:108A6000009A013A0092009A002A22DD91F82F2004
:108A7000002AE3D0C3F82401D3F824210B920B9AE7
:108A8000C3F81C01D3F81C210C920C9AC3F80801FE
:108A9000D3F808210D920D9AD3F80421002ADFD0D3
:108AA0000022C3F80421D3F804010590059881F849
:108AB0002D2091F82F20C2B1D3F8C424C3F8C424C8
:108AC0009AB112F0010F18BF4FF4024048F2012191
:108AD00008BF032012F0020F18BF084648F2022117
:108AE00012F0040F18BF084600E00020009A002A88
:108AF00087DC00210522C3F800150320C3F80025F8
:108B00007FE7D3F81C2192B1C3F81C41D3F81C2194
:108B10000992099AD3F824211AB3C3F82441D3F84F
:108B200024210892089A5E6181F82F6096E7D3F8B5
:108B30000841002C92D0C3F80821D3F808410794CB
:108B4000079CD3F82441C4B1C3F82421D3F82421CD
:108B50000692069A5E6181F82F607FE70122DA6152
:108B600046E74C6B8A6A94421DD24A6A125DC3F88A
:108B70001C254A6B01324A6370E74C6B8A6A944247
:108B8000BFF46CAF4F6AD3F818253A554C6BD1F847
:108B900028E001340EF1FF3294424C6313D0744547
:108BA00017D01E625AE791F82C2022B90A6A5206A1
:108BB00004D45E6152E70122DA617AE70122DA61C8
:108BC00081F82D2075E70A6A57060AD4C3F8008297
:108BD000E7E70A6A52067FF541AF022281F82D20AD
:108BE00067E77445DDD1F8E7A08601002DE9F04183
:108BF0008EB08C4A00920022C0F804210346D0F8BF
:108C0000040104900498C3F82421D3F824010390AC
:108C10000398C3F81C21D3F81C0102900298C3F8F2
:108C20000821886AD3F8084101940128019C4A630D
:108C300081F82F2015D00122C3F8002201221A62E8
:108C400091F82D00022818BF1A60086880B140F220
:108C500086228A608A68C3F8042300200EB0BDE82B
:108C6000F0810A6A5006E6D40222C3F80022E5E742
:108C7000009A002A3EDD01264FF0020817E0D3F8E3
:108C800024414D6BD1F828C0002C5BD0C3F82421BF
:108C9000D3F824210A920A9A5E6181F82F60654513
:108CA0001BD0009A013A0092009A002A22DD91F826
:108CB0002F20002AE3D0C3F82401D3F824210B92FB
:108CC0000B9AC3F81C01D3F81C210C920C9AC3F820
:108CD0000801D3F808210D920D9AD3F80421002A37
:108CE000DFD00022C3F80421D3F8040105900598D1
:108CF00081F82D2091F82F20C2B1D3F8C424C3F8F5
:108D0000C4249AB112F0010F18BF4FF4024048F288
:108D1000012108BF032012F0020F18BF084648F2D5
:108D2000022112F0040F18BF084600E00020009A4C
:108D3000002A93DC00210522C3F800150320C3F8A4
:108D400000258BE7D3F81C2192B1C3F81C41D3F85E
:108D50001C210992099AD3F8242102B3C3F82441B3
:108D6000D3F824210892089A5E6181F82F6096E773
:108D7000D3F80841002C92D0C3F80821D3F8084159
:108D80000794079CD3F82441ACB1C3F82421D3F84D
:108D900024210692069A5E6181F82F607FE74C6B72
:108DA0008A6A94421DD24A6A125DC3F81C254A6B36
:108DB00001324A6373E74C6B8A6A9442BFF46FAF27
:108DC0004F6AD3F818253A554C6BD1F828E0013496
:108DD0000EF1FF3294424C6313D0744517D01E62DB
:108DE0005DE791F82C2022B90A6A520604D45E612C
:108DF00055E70122DA617DE70122DA6181F82D2051
:108E000078E70A6A57060AD4C3F80082E7E70A6AD5
:108E100052067FF544AF022281F82D206AE774459F
:108E2000DDD1F8E7A0860100F0B57F4C7F4B94F8C8
:108E30002F2091B062BBD3F82411606BA56A69B191
:108E4000C3F82421D3F8242106920122069984F83C
:108E50002F205A61A8422ED011B0F0BDD3F81C21AA
:108E6000002A53D0C3F81C11D3F81C210592059A8F
:108E7000D3F82421002A00F0A980C3F82411D3F8E4
:108E8000242104920122049984F82F205A61E1E7F9
:108E90000022C3F82421D3F8241107910799C3F8BD
:108EA0001C21D3F81C1108910899C3F80821D3F8A4
:108EB00008310993099B5D4BD3F80421002ACBD0DC
:108EC0000022C3F80421D3F804310193019B276ADF
:108ED00084F82D2094F82F30002B30D1227B911E66
:108EE000012944D9524E0FCE0BAD0FC533682B600C
:108EF00000238DF828300023790784F83030ABD474
:108F0000D4E900310AA8984711B0F0BDD3F8081190
:108F100000299FD0C3F80821D3F8081103910399C1
:108F2000D3F8241100293DD0C3F82421D3F82421FB
:108F300002920299012284F82F205A618AE73C4E5E
:108F4000DFF8E8C00FCE0BAD0FC533682B60DCF83F
:108F5000C434CCF8C4349A0703D501238DF82830E3
:108F6000C9E75D0718D502238DF82830C3E7606A8A
:108F7000A1698842B6D1E069616984F82D30C7F3F0
:108F80004017032AC4E9090184F82C7026492748B0
:108F900031D0FFF72BFE5FE7D80744BF03238DF8DE
:108FA0002830A8E7A842BFF455AF626AD3F8181575
:108FB0001154626BA16A0132481E8242626321D061
:108FC0008A4226D0194B01221A6245E7A84206D2EE
:108FD000616A421C095CC3F81C1562633CE794F8A3
:108FE0002C205AB9276A7E064FF00102A5D5DA6116
:108FF00084F82D206EE7FFF7C5FC2DE70122DA612A
:10900000276A67E7276A78060BD40222C3F8002292
:10901000D8E7276A7E067FF51FAF022384F82D303C
:1090200058E78A42CED1F8E7C4290020003000403A
:10903000D02900202DE9F04F90F80490394F4FEAE5
:109040000918A8EB0906B600BD1983B095F82E40A3
:10905000002C59D10C46834633490068019392464F
:10906000FFF75CFC002859D147F806A0019BA860D7
:109070006B6085F8300085F82D0085F83100637B42
:1090800085F8383023684FF0A04103F5E07340F2D3
:109090000C6541F82350636803F5E07341F82350F1
:1090A000D4E90035DBF80010C1F80835C1F80C55DB
:1090B000A368C1F82435BAF1000F1BD0DBF80020FB
:1090C000237B120B51B25B010029DBB220DB01F1E3
:1090D000604101F5614181F80033DBF80030134C49
:1090E0001B0B5AB2520903F01F03012101FA03F3CB
:1090F00044F82230A8EB090307EB8303012283F82D
:109100002E2003B0BDE8F08F082003B0BDE8F08F3B
:10911000074902F00F0211440B76DEE7112003B07D
:10912000BDE8F08FC4290020298E020000E100E094
:10913000FCEC00E00379064A0168C3EB031302EB81
:1091400083030220052283F82E00C1F80025704712
:10915000C42900202DE9F84F0479264F9DF8289066
:10916000D0F80080C4EB0416B600BD19B9F1000FA9
:1091700095F82DC014BF20200020BCF1020F2CD088
:10918000DFF874C0C8F808C395F830C00CF0FF0AC7
:10919000BCF1000F28D1C4EB04148E46A10001F1EC
:1091A0000C0B07EB0B0C0124286285F83040394486
:1091B00007F80BA04046CCE9013A8CF801E0CCE975
:1091C000032AC5E90923C8F888E585F82C90FFF73C
:1091D000D9FBBB5923B1BDE8F88F0820BDE8F88F53
:1091E00085F83030BDE8F88FAB68C8F8043311203B
:1091F000BDE8F88FC4290020864204002DE9F0471D
:109200000479214FD0F800E0C4EB0416B600BD1974
:1092100095F82D00012829D01C48CEF8080395F8B0
:10922000300000F0FF0940BBC4EB0414A40004F1BB
:109230000C0007EB000C88464FF0010A85F830A0BF
:10924000C5F82090391907F800A0CCE901398CF84D
:109250000180CCE903297046C5E90923CEF8888549
:10926000FFF7C4FCBB5923B1BDE8F0870820BDE877
:10927000F08785F83030BDE8F087AB68CEF804336E
:109280001120BDE8F08700BFC429002086420400F9
:1092900030B56E4AD2F8043399058BB066D5D2F852
:1092A0002431002B62D00023C2F82431D2F82431BB
:1092B00001934FF40171664B0198C2F8081393F8BB
:1092C000291009B901215160604902228DF8182046
:1092D000D1F88024C1F880249869D96809920022C5
:1092E000CDE90710C3E90622D3E9001406A8A04778
:1092F000564AD2F81C31C3B1554B5869196A884295
:1093000069D993F8281001F0FF00002963D1C2F851
:109310001C01D2F81C11039103999C68186A196A00
:10932000205C01311962C2F81C05484AD2F8443168
:10933000D3B10021464BC2F84411D2F8440193F84E
:1093400029100090009800295CD19A6962B100222E
:10935000586AD9689A610122CDE907108DF8182062
:1093600006A8D3E9001290470BB030BD374AD2F8B7
:1093700004335B07BCD5D2F80831002BB8D0344B8E
:109380009969002941D00021C2F80811D2F80811CA
:1093900004910499D868596AD2F8182542545A6A37
:1093A000996901325A625A6A8A42A1D1DA69196806
:1093B000002A33D0D8685D6A1C699A610790002240
:1093C0000120DC60DA615A628DF8180008955B684C
:1093D00006A898478CE71D4A0021C2F81C11D2F854
:1093E0001C210292029A5A69002A9ED058699A68F2
:1093F0008DF8181008905961079206A8D3E9001259
:10940000904792E7012111609FE7C2F80811D2F856
:10941000080105900598D2F81825C4E793F829208B
:1094200012B90A4A01205060084A4FF40170C2F88C
:109430000803586ADA6808900024012007928DF822
:1094400018005A689C6106A8904751E70020004028
:10945000002A00202DE9F041DFF8888107792C26C9
:1094600006FB078682B096F82A30002B40F08580F4
:109470000C460546574900681646FFF74FFA002884
:1094800077D12368591C0CD001224FF0A04102FA79
:1094900003F3C1F80835236803F5E073032241F8AC
:1094A000232063685A1C06D003F5E0734FF0A042F6
:1094B000002142F823102B68A269C3F82425217DDE
:1094C000637D2A680B43C2F86C35D4E900122B681F
:1094D000C3F81425C3F80C15237D012B57D02C237A
:1094E00003FB07F308EB03025660226948F80320E8
:1094F00066B32A68237F384C0021C2F81C11D2F8C9
:109500001C2100922A68009EC2F84411D2F844112E
:109510002A6801910199C2F804432A68120B51B2DA
:109520005B010029DBB22CDB01F1604101F56141F7
:1095300081F800332B68294C1B0B5AB2520903F0F7
:109540001F03012101FA03F344F822302C232C6875
:1095500003FB0783002204250121C4F8005583F88A
:109560002A10C3E9062283F829205A6102B0BDE817
:10957000F081112002B0BDE8F081082002B0BDE802
:10958000F081174902F00F0211440B76D2E7A3686D
:10959000591C06D003F5E0734FF0A042002142F8B9
:1095A0002310E3685A1C0DD001224FF0A04102FAAB
:1095B00003F3C1F80835E36803F5E073032241F8CB
:1095C0002320E3682A68A168C2F80835C2F810159C
:1095D00085E700BF919202008000020000E100E0F8
:1095E000FCEC00E0002A0020F8B52F4D0479026859
:1095F0002C2303FB045300215B68C2F8001583B1E0
:1096000003682A4AC3F808230368294E1B0B5AB281
:109610005209203203F01F03012101FA03F346F837
:10962000223003684FF0FF32D3F80CC5D3F814751D
:10963000D3F80815D3F81065C3F81425C3F80C2522
:1096400003689445C3F80825C3F8102506D00CF527
:10965000E07C4FF0A043022243F82C207B1C06D074
:1096600007F5E0774FF0A043022243F82720721C51
:1096700006D006F5E0764FF0A043022243F82620FC
:109680004B1C06D001F5E0714FF0A043022243F8D5
:1096900021200068FFF76AF92C2303FB0454002300
:1096A00084F82A306360F8BD002A0020840202009A
:1096B00000E100E02DE9F041314E05792C2303FB58
:1096C00005630446586984B000284CD15A619960FA
:1096D000186283F828002268C2F81C01D2F81C1115
:1096E000226802910121029F91602268D3F808C08C
:1096F000C2F81C01D2F81C11019101991F6A196A64
:109700001CF8077001311962C2F81C755A6812B151
:1097100004B0BDE8F0815F691A6A216897421BD9DD
:10972000864602E093F828200ABBD1F81C21002AC3
:10973000F8D0C1F81CE1D1F81C210392039AD3F8A8
:1097400020801A6A1CF8088001321A62C1F81C8550
:109750001A6A9742E9D82168D1F81C31002BFBD056
:109760000123CB6004E0112004B0BDE8F0810F209C
:109770002C2303FB056500236B6104B0BDE8F08179
:10978000002A0020F0B5554BD3F824218BB0002AD5
:1097900073D00021C3F82411D3F8242104920222AB
:1097A0008DF81820049AD3F880044D4AC3F8800439
:1097B0000990D3F83C05D3680890C2E906110793D5
:1097C0001168536806A89847444BD3F8442152B116
:1097D0000021434AC3F84411D3F84401916903902E
:1097E0000398002938D13D4BD3F820215AB10021EC
:1097F000C3F82011D3F8202102920120384A029C9C
:10980000D8605069D8B9354BD3F85821AAB1002196
:10981000C3F85811D3F85801314A019001985069A2
:1098200058B1D3F84C05936808908DF81810516121
:10983000079306A8D2E9001398470BB0F0BDD3F800
:109840004C05936808908DF818105161079306A88D
:10985000D2E900139847D6E7D3F83C35D16808938E
:1098600000240025012307918DF81830C2E9064530
:10987000D2E9001306A89847B5E7D3F810110029DC
:10988000A2D0C3F81021D3F81011154805910599FD
:109890008169D3F83C458C4296D1C569C768D0E947
:1098A00000168DB1D3F800C285612CF02005C2618D
:1098B000C3F800520369C3600122CDE907748DF833
:1098C000182006A8B0477FE701238561CDE907741A
:1098D0008DF8183006A8B04776E700BF002000409A
:1098E000302A00202DE9F04307796B4E4FEAC70874
:1098F00008EB070306EB830387B093F82030002BB7
:1099000040F09E800D460446644900689146FFF78A
:1099100005F8002840F090802B68591C0CD00122DB
:109920004FF0A04102FA03F3C1F808352B6803F5A4
:10993000E073032241F823206B685A1C06D003F51C
:10994000E0734FF0A042002142F823102368AA6977
:10995000C3F82425297D6A7D23680A43C3F86C2552
:10996000D5E900312268C2F80C35C2F814152B7DF8
:10997000012B6FD008EB07029200B318C3F80490D4
:109980002B69B350B9F1000F45D021682B7F444DAE
:109990000022C1F81021D1F8101101912168DDF8E1
:1099A00004C0C1F82021D1F8201102912168DDF80E
:1099B00008C0C1F82421D1F8241103912168DDF8F1
:1099C0000CC0C1F84421D1F8441104912168DDF89C
:1099D00010C0C1F85821D1F8581122680591059995
:1099E000C2F804532268120B51B25B010029DBB2AA
:1099F0002ADB01F1604101F5614181F80033236800
:109A0000284D1B0B5AB2520903F01F03012101FA22
:109A100003F345F822304744226806EB870600230B
:109A200001240821C2F8001586F82040C6E9063353
:109A3000736107B0BDE8F083112007B0BDE8F08383
:109A4000082007B0BDE8F083174902F00F02114467
:109A50000B76D4E7AB68591C06D003F5E0734FF0E2
:109A6000A042002142F82310EB685A1C0DD00122BD
:109A70004FF0A04102FA03F3C1F80835EB6803F593
:109A8000E073032241F82320EB682268A968C2F83A
:109A90000835C2F810156DE7302A002085970200BE
:109AA0001003420000E100E0FCEC00E0F0B50679B4
:109AB0003C4C0368F500AA1904EB820283B052689B
:109AC00082B1394AC3F808230368384F1B0B5AB2D6
:109AD0005209203203F01F03012101FA03F347F872
:109AE00022300368D3F8002222F02002C3F80022BB
:109AF00002680123536002680021C2F85811D2F8AD
:109B00005811026801910199D3600268D2F8583166
:109B1000002BFBD00023C2F8003503684FF0FF3262
:109B2000D3F80CE5D3F814C5D3F80815D3F810759D
:109B3000C3F80C25C3F8142503689645C3F8082517
:109B4000C3F8102506D00EF5E07E4FF0A0430222A8
:109B500043F82E20BCF1FF3F06D00CF5E07C4FF01F
:109B6000A043022243F82C207A1C06D007F5E077A8
:109B70004FF0A043022243F827204B1C06D001F5EA
:109B8000E0714FF0A043022243F821200068FEF765
:109B9000EDFE354404EB8504002384F82030636037
:109BA00003B0F0BD302A00201003420000E100E0C5
:109BB00001F06043B3F1005F2DD1F0B40579284E78
:109BC000EF007C1906EB840482B06369002B3FD15F
:109BD0006261A1600268C2F82031D2F820C1026837
:109BE000CDF804C0DDF804C0C2F85831D2F85821CD
:109BF00000920268DDF800C0D4F814C0C2F8441521
:109C0000C2F848C5026801219160626832B1184605
:109C100002B0F0BC7047102318467047026800E09D
:109C2000DBB9D2F82011D2F858310029F8D0A3B905
:109C30000121D1600168D1F85821002AFBD03D44B0
:109C400006EB850600221846726102B0F0BC704730
:109C50001123184602B0F0BC70470F23EFE700BF96
:109C6000302A002030B4B84B1B78062B20D0B74BDD
:109C70001B68062B00F08180B54AD2F8883043F487
:109C80007003C2F88830BFF34F8FBFF36F8F4FF070
:109C90001023D3F80022002AC0F28681D3F80432C0
:109CA000002BC0F28181AB4BAB4A1A6030BC7047CD
:109CB000AA4B1B681D07DAD1A94B1B6803F0F00201
:109CC000302A00F09B8003F0E003402B00F09680E8
:109CD000A34B1B6803F0F003302B00F0A080A04BD7
:109CE0001B6803F0F002302A77D003F0E003402B2A
:109CF00073D09B4B1B6803F0F003302B00F01481F2
:109D0000974B1B6803F0F002302A52D003F0E003B7
:109D1000402B4ED0924B1B6803F0F003302B00F029
:109D2000F5808F4B1B6803F0F003302B00F0D780D9
:109D30008B4B1B6803F0F003502B7ED0884B1B68C5
:109D400003F0F002302A23D003F0E003402B1FD0B1
:109D5000834B1B6803F0F002302A03D003F0E003CA
:109D6000402B84D14FF08043D3F80024D20744BF66
:109D70006FF00102C3F8002479E77A4B1B68062BC9
:109D80007FF47AAF784A136843F48063136073E713
:109D9000764B6D4A1B681278754903F04F03062A0B
:109DA0000B607FF464AF6D4B1B6819077FF45FAFE6
:109DB000CEE7654A11784FF0804300220629C3F8A8
:109DC0000C21C3F81021C3F838257FF450AF634B42
:109DD0001B681B077FF44BAF9CE7664B5A4A1B6816
:109DE00012786549C3F34233062A0B607FF43FAF14
:109DF0005A4B1B6819077FF43AAF7AE75F4B524A18
:109E00001B6812785E49C3F30423062A0B607FF4B3
:109E10002EAF524B1B681C077FF429AF58E74A4B03
:109E2000584A1B7858491160062B7FF420AF4B4BE2
:109E30001B6818077FF41BAF51E74FF08052534B5C
:109E4000D2F80414C3F82015D2F80814C3F8241566
:109E5000D2F80C14C3F82815D2F81014C3F82C1536
:109E6000D2F81414C3F83015D2F81814C3F8341506
:109E7000D2F81C14C3F84015D2F82014C3F84415C6
:109E8000D2F82414C3F84815D2F82814C3F84C1596
:109E9000D2F82C14C3F85015D2F83014C3F8541566
:109EA000D2F83414C3F86015D2F83814C3F8641526
:109EB000D2F83C14C3F86815D2F840142248C3F80D
:109EC0006C15D2F844140278C3F87015062A7FF492
:109ED000CEAE224B1B6818077FF4C9AE2EE71A4B93
:109EE0002B4C1B782B492C482C4A05252560012535
:109EF0000D6000243F21062B046011607FF4B7AE93
:109F0000164B1B681C077FF4B2AE11E70E4B244AB8
:109F10001B780321062B11607FF4A9AE0F4B1B6841
:109F20001D077FF4A4AEFCE61E4A0749D3680978F2
:109F300023F080730629D3607FF499AE074B1B682A
:109F40001A077FF494AEDBE6E00F00F0300100105A
:109F500000ED00E0742200200090D003E40F00F038
:109F6000E80F00F0340100103C17004058020010C8
:109F7000E40E0040440200103C05004024030010A1
:109F80004035014074C007400DF0ADBA00C000403C
:109F900010560040885600401856004014560040A5
:109FA000A0050040F0ED00E0184A0123C2F8043596
:109FB000D2F80034002BFBD04FF010231521134AA8
:109FC000C3F80012D2F80034002BFBD04FF010235E
:109FD00015210E4AC3F80412D2F80034002BFBD02E
:109FE00000230A49C2F80435D1F80034002BFBD015
:109FF000BFF34F8F0649074BCA6802F4E062134370
:10A00000CB60BFF34F8F00BFFDE700BF00E0014012
:10A0100000ED00E00400FA05F8B5234E4579234C25
:10A02000234F0346234847F82520801B04EBC50631
:10A03000C0083679000486BB1A680D88C2F8085536
:10A0400093F904208978002A1FDB02F1604202F5AF
:10A0500061424901C9B282F8001393F90420164FF6
:10A060001649012602F01F05520906FA05F547F8C0
:10A0700022505A7904EBC20540F003002E7144F8D7
:10A080003230FCF7E5FB0020F8BD0D4D02F00F0269
:10A0900049011544C9B22976DFE740F002000949B9
:10A0A000FCF7D6FB0820F8BD088C0300542A0020DA
:10A0B0005C2A0020408C030000E100E0BC67030044
:10A0C000FCEC00E098670300036801221A60704707
:10A0D000036801225A607047F0B404684FF4803579
:10A0E0008D40C4F80853066801F15004C6F848537F
:10A0F000A4000668A4B20027375182B0365904681C
:10A10000019601F5A87122F07F42019E44F82120BA
:10A110000268C2F8445313B10368C3F8045302B091
:10A12000F0BC70472DE9F0430E464FF480370168CC
:10A13000B740C1F848730168C1F808730168044664
:10A1400001EB8600D1F804C5D0F84015C0F840C531
:10A1500006F15005AD002068ADB24FF0000940F89F
:10A16000059085B0A1EB0C014059029021F07F4190
:10A17000012922F07F48029A45D02268D2F804557E
:10A18000C2F84473A8EB050222F07F42012A06F5CB
:10A19000A87627D0226842F826802068D0F8045597
:10A1A000A8EB0501C3F1FF13013903F57F4321F04B
:10A1B0007F418B4212D341B1C0F844732368002021
:10A1C000C3F8047305B0BDE8F08308F1010240F85C
:10A1D00026202068D0F804359D42EDD00D2005B032
:10A1E000BDE8F08320680F4B08F1010240F82620FB
:10A1F00043F001034FF4806098472068D0F804359D
:10A200009D42D9D0EAE7074A019342F001024FF498
:10A21000806090472268019B42F805905259039252
:10A22000039AAAE79067030002680223C2F8443346
:10A2300011B10268C2F80433704700BF0368D3F855
:10A24000040100B97047002282B0C3F80421D3F89A
:10A2500004310193019B012002B070474FF4803319
:10A26000026803FA01F1C2F848130368C3F808133F
:10A27000704700BF5031890089B20368585800B94F
:10A28000704700225A5082B05B580193019B012015
:10A2900002B070470368D3F80405704790F90430A2
:10A2A00005485A09403203F01F03012101FA03F364
:10A2B00040F82230704700BF00E100E0024A034B43
:10A2C00010681B68184700BF542A00205C2A002031
:10A2D0002DE9F04102230B808468013430D000F571
:10A2E0008055083072B3334F9E464FF6FF764FF0DD
:10A2F000010C4388DC1C00EB8404A54252D3848803
:10A30000B44249D00488002C46D08468B4F1FF3FA1
:10A3100042D0D7F80080A04503D23C60B1F800E0FD
:10A320004388734403331FFA83FEA1F800E0448896
:10A33000033400EB8400854202D904680134D8D18B
:10A34000BDE8F0811B4C9E464FF6FF764388DA1C31
:10A3500000EB8202954227D38288B2420BD002885A
:10A360004AB18268571C06D02768974203D2226000
:10A37000B1F800E04388734403331FFA83FEA1F869
:10A3800000E04288033200EB82008542D8D903689E
:10A390000133DBD1BDE8F08182F800C0B1F800E004
:10A3A0004388BEE7012313704FF480630B80BDE840
:10A3B000F08100BF982A0020F0B443681BB1394AED
:10A3C000D468A34249D20023374F0B807A684FF0FC
:10A3D000010C02F580544FF6FF76083294420ED8F5
:10A3E000BCF1020FA1F800C007F1140757D07A683A
:10A3F00002F58054083294424FF0020CF0D91368F1
:10A400000133EDD05388033302EB83039C42E7D33F
:10A410009588B5420DD015885DB19568B5F1FF3FBF
:10A4200007D00368AB4211D05388033302EB830299
:10A43000D4E79C42D4D91A6801321A46D0D05D883C
:10A44000033503EB85039C42E2D2C9E7174B426018
:10A450001B8903810120F0BC704712699342B2D876
:10A4600013F00305AFD1114A048912899442AAD18D
:10A4700004689A689442A6D10B484268934203D973
:10A4800002F58052934207D38269934207D902F5BD
:10A490008052934203D201250D800120DBE700208A
:10A4A000D9E700BF10230020A02A0020842A002022
:10A4B0002DE9F04FA34E8BB005464FF6FF79346877
:10A4C000002C00F0BB802278531E052B00F237824F
:10A4D000DFE803F0583B3B1E1E03002D40F0B58023
:10A4E000DFF888C29CF80C209CF80030002A00F0AD
:10A4F000D280013B8CF80C50062B00F22082DFE862
:10A5000013F02B040E035F0139011E02FA020E0242
:10A51000002D40F09A802379012B00F05182002B0E
:10A5200000F0368205AF022B0595C7E902553D6163
:10A5300001D048F20E6506952378023B042B33D8F0
:10A54000DFE803F0644C702C6000B4F814A0A17D27
:10A55000002D40F006824FEA8A087B4F08EB0A0381
:10A5600007EB83031D895B6803EB8505062900F271
:10A570005484DFE811F0C501B401A1018E01690125
:10A5800050013A01002D40F0E1812379032B77D867
:10A59000DFE813F0CB00B800AD008E0004238DF887
:10A5A0001430E388ADF82030684C04F1100554F8FD
:10A5B000043B384603B19847A542F8D16449654841
:10A5C0000025356001F0B6FA01216348FDF762FA13
:10A5D00000287FF474AF0BB0BDE8F08F02238DF834
:10A5E00014302389ADF82030A388ADF82230E36819
:10A5F0000793A37DA3F10603B3FA83F35B098DF8F8
:10A600002430D1E705238DF81430CDE701238DF8F0
:10A6100014302389ADF82030A388ADF82230E368E8
:10A620000793C1E703238DF81430E388ADF8203099
:10A630002389ADF82230E3680793B5E744494548DC
:10A6400001F048FA044630603DE705AF0023BB60E7
:10A650000593C7E903334FF406456CE700239A00DE
:10A660001A4407EB8203002059680090082307F87A
:10A6700022003A4A3A4801F011FB0028ABD0346876
:10A68000384A05AF002353600593C7E902333B61A5
:10A6900048F20D654FE7072B00F24983DFE813F01E
:10A6A000C0024703470300032E033F013F0141035C
:10A6B0002D4D2A4A29682A48234F4FF0000884F874
:10A6C00004800823CDF8008001F0E8FA274B2C68BD
:10A6D0005B88A98803EB830307EB830207F82380D9
:10A6E00053682B60022354601181AB80C5E71E4A7A
:10A6F0001B4811680023237102249480012201F079
:10A700006BFBBAE7104F3B78022BA7D03B7D022BA7
:10A7100000F07C83134A05AF0123137000235360BC
:10A720000593C7E902333B6105E70F4B104A1968EF
:10A730000B480123237100230093082301F0AEFA94
:10A740009BE700BF9C2A0020A02A00206C2A002042
:10A75000942A0020542B0020642B0020D46703008F
:10A76000102300207C2A0020682B0020842A00204F
:10A77000DC670300BCF80230B74F03EB830307EB41
:10A780008307FB68002B40F03D8204228CF80020F8
:10A790007968B248012201F01FFB0546002D3FF405
:10A7A0001AAF346805AF41F61D5200239542BB60D5
:10A7B0000593C7E9033308BF1D463FF4BCAE0DE364
:10A7C000DCF80420A648538884880168A348033332
:10A7D0009BB29B0001EB84010024009403248CF8BD
:10A7E000004001F05BFA0546D8E7E288204641F6D2
:10A7F0001D5508EB0A0107EB8101D31C0A8913449C
:10A800000B81E2880446D04407EB88077B89033B31
:10A810009B1A7B81C6E7934B934A1D8851688F48EA
:10A82000924A00234FF0060C84F816C000930423CC
:10A8300001F034FA18BB05EB850507EB850701230A
:10A840003B740BB0BDE8F08F874BA26985491A6055
:10A850004FF0000B1846C3F804B0FFF7ADFD002819
:10A8600000F0BF820223A37504232946CDF800B06F
:10A87000E2187A4801F012FA00283FF4ACAEA37D4A
:10A880003068E288022B00F2B982044648F20D6576
:10A89000B9E7E388226971484FF0010C05F10C011A
:10A8A000002584F816C09B00009501F0F7F90028F8
:10A8B000E5D10BB0BDE8F08F23696848002B14BFC9
:10A8C000032301230022A37505F10801009204234C
:10A8D00004F10C0201F0E2F90028D0D17BE6032A52
:10A8E0000CBF052306230022A375291D0092042313
:10A8F00004F10802594801F0D1F90028BFD16AE6F5
:10A9000002230022A375042300922946E21853482B
:10A9100001F0C4F90028B2D10BB0BDE8F08F504B64
:10A92000534A19684D4800230093CCF8043007239C
:10A930008CF80030082301F0B1F905462EE705AF89
:10A940000023BB600593C7E90333F2E505AF494A2D
:10A95000002353600593C7E902333B614FF406457A
:10A96000E9E50229E28869D83B4F4FEA8A0808EBFB
:10A970000A0107EB810105AF4B89033B9B1A0022BB
:10A980004B81BA600592C7E903224FF40645D2E530
:10A9900002232371CDE9065505AFE36805933846D8
:10A9A0000DF11201FFF708FD002840F0D88148F2B0
:10A9B00009650023C7E90033C7E902333B61BAE503
:10A9C0002C4B1B78002B00F0FD81DFF8ACE0BEF8CB
:10A9D0000480B8F1010F10D81F4F08EB880207EB75
:10A9E00082021378B3B108F1010399B201299846A4
:10A9F000AEF8043002F11402F3D905AF08220021A9
:10AA00001D480AF0D1FE0023BB600593C7E903335C
:10AA1000346890E55368DEF8001003F5805003F1C8
:10AA2000080C002900F0CC814B88033301EB830133
:10AA3000884223D80023CEF80030D4E74FEA8A08B2
:10AA4000054F08EB0A0107EB8101D31C0A89134467
:10AA50000B81E2888BE700BFA02A00201023002092
:10AA6000682B0020742B0020602A0020D067030090
:10AA7000DC6703007C2A0020782B00200B68013360
:10AA8000D8D04B88033301EB83039842D2D303928F
:10AA9000B1F804A0CA451ED0B1F800B0BBF1000F58
:10AAA00019D08A68013216D0E388039ACEF80010D4
:10AAB0005345B6D100230093B54AB648042301F0AC
:10AAC000EDF8002840F09D8108EB880807EB880727
:10AAD00001233B747FE598420BD91968013119466F
:10AAE00007D0B3F802A00AF1030A03EB8A039842E5
:10AAF000CED2039A9EE7BCF80220A74F93001344DE
:10AB000007EB8307062000237968A44A00938CF89A
:10AB1000000008239F4801F0C1F805463EE6BCF856
:10AB200002E09D4FDCF804204FEA8E0404EB0E0394
:10AB300007EB8303596801F58050002A40F0C88074
:10AB400001F10802904240F2CA801368013300F01C
:10AB5000C6805388033302EB83039842C0F0BF8062
:10AB600095884D4500F01E811588002D00F01A8152
:10AB70009568013500F01681CCF80420884C538884
:10AB8000A5882168834803339BB29B0001EB8501B4
:10AB900022E6012005468400231807EB8303DCF836
:10ABA00004205968ACF8025001F5805E002A00F0DC
:10ABB00031815388033302EB830272451CD2136840
:10ABC000013319D05388033302EB83039E4513D31B
:10ABD00095884D4504D0158815B195680135CBD1C0
:10ABE0009E4509D91A6801321A4605D05D88033599
:10ABF00003EB85039E45EBD2231807EB8307FB6825
:10AC0000002B72D0664B6348196802229A80052295
:10AC10008CF800200023012201F0DEF80546BDE596
:10AC20005D4FBCF808103A7D3B78B2FA82F25209C7
:10AC30000131B3FA83F35B098CF80B20ACF80810F0
:10AC4000002201218CF80A30ACF802208CF80C208C
:10AC50008CF800104BB1504FF86800228CF80A2095
:10AC600018B93A7C002A40F0D3809CF80B304BB1E5
:10AC7000494F3B6A00228CF80B201BB997F824300F
:10AC8000002B86D105AF0023BB608CF80030ACF8F8
:10AC90000230CCF804300593C7E9033334684AE442
:10ACA000BCF802E03E4D3C4FDCF80420AB885088F5
:10ACB0004FEA8E0404EB0E0107EB81010333496870
:10ACC00003444FF0020801F58050AB808CF80080FF
:10ACD0005388033302EB830290423FF636AF74444D
:10ACE00007EB8407FB68002B8CD104208CF8000054
:10ACF0000122284801F070F805464FE5BCF8022013
:10AD0000254F27489300991807EB810104684D6887
:10AD1000B0F804E04C6002240560A1F808E08480EB
:10AD2000EDE601238CF800309CF80A3092E7013BF5
:10AD3000062B3FF604AE01A252F823F059AD0200F3
:10AD40001FAB0200C1A7020075A702003FA90200C5
:10AD5000F7AA02001FA902009CF80A307AE70699B8
:10AD60000B4A8B88E3800B8823810A4800950423D3
:10AD7000BDF8124000F092FF00283BD1064B04EBD7
:10AD8000840403EB8404012323740BB0BDE8F08F2B
:10AD9000D067030010230020A02A0020D4670300FE
:10ADA000682B002083429AD21A6801321A4696D044
:10ADB0005D88033503EB850383427FF6D1AE8EE7D2
:10ADC000614635E605AF2946082216480AF0ECFC34
:10ADD0000595C7E902553D6148F201653468FFF702
:10ADE000AABB05AF0590C7E90200386148F20965C2
:10ADF000FFF7A1BB346848F20D65DAE548F20D654E
:10AE0000F7E4346848F20D6505AFD2E5012326E486
:10AE10000546C0E601F10802CFE6E288204648F286
:10AE20000E65E6E4782B00204068FFF741BB00BFC9
:10AE30002DE9F04782B0002A64D0B2F800A0B2F841
:10AE400002900E46054601A94848984600F004FEC7
:10AE50001C22044600210AF0A7FC002C3ED000274B
:10AE600084F80080A4F814A0A775736823610121F9
:10AE70003F48FCF703FEE060338823817388A3809A
:10AE8000B8F1030FA4F8069018D0678101A93748DC
:10AE900000F010FE3DB100236B60E168354A296087
:10AEA0001289AB722A8101213348FCF7DBFD04468D
:10AEB00070B10024204602B0BDE8F0870423A375DA
:10AEC0002B68A36101A96781284800F0F3FDE2E740
:10AED000FFF7EEFA204602B0BDE8F087274B0AEBF9
:10AEE0008A0A03EB8A0AC9F57F49BAF80A3048F2A0
:10AEF000076409F1FD0999442046AAF80A9002B0B6
:10AF0000BDE8F087B1F8089009F1030292B240F26F
:10AF1000FE34A2421AD8194C27783FB96689258990
:10AF200035441544ADB2B5F5806F12D9257D3DB9D4
:10AF3000E68BA58B35441544ADB2B5F5806F10D9BD
:10AF400048F20664204602B0BDE8F08748F2086483
:10AF5000B0E7BA46BD003D4404EB8504324462814B
:10AF60006FE74FF0010A5746F4E700BF542B00206B
:10AF7000982A0020842A0020642B0020A02A002088
:10AF800038B5094B1A68042A0AD01D68074C0246D6
:10AF90000121184644F82520FCF770FD002038BD3B
:10AFA00048F20B6038BD00BF702B00206C2A0020D7
:10AFB0002DE9F04F994D89B02A780023CDE903336C
:10AFC000CDE90533079372B1954C04F1100554F89F
:10AFD000043B03A803B19847A542F8D100242046BA
:10AFE00009B0BDE8F08F281D02F0FF09FCF75EFDF7
:10AFF0000028F3D140F6F8731B685C1C46D04FF074
:10B00000805211695269DFF844828649C8F81030CD
:10B010004046A3F540530022C8F80C3000F010FE63
:10B0200004460028DBD11C238C227F497F48DFF8AF
:10B0300020A200F0D7FC26464FF0030B2746D8F895
:10B040000C3016EB030CF25875D0794B9A4228D18C
:10B05000DCF8043077498B4200F0928001318B425A
:10B0600069D1B9F1000F40F0A280734B7349C3F866
:10B0700000C0604600220193FFF72AF9019B9B88DC
:10B08000022B0CBF042308231C431BE06C4B4FF026
:10B0900080521B6811695269581C08BF02FB01F3FA
:10B0A000B1E701324CD007EB87030AEB830203219F
:10B0B0000BF1FF3B01370AF823101FFA8BFBBFB2DD
:10B0C000C2F804C006F58056B6F5405FB7D1BBF1B3
:10B0D000010F40F2A080E4B2022C00F09C80062C0C
:10B0E0000ED14F4C012200232A7004F110066B6030
:10B0F00054F8043B03A803B19847A642F8D16DE782
:10B10000002C00F0888002A9484800F0A5FC1C2211
:10B11000054600210AF048FB002D79D00123013CAF
:10B120002B700A2C5CD8DFE804F06D5B6D5B705B04
:10B13000705B6A596A00531C02D03D4B9A42B2D1EF
:10B140000CF104030CF580511A68013203F1040379
:10B15000A9D18B42F8D1384B1A68002A37D007EBB7
:10B1600087030AEB830102223648C1F804C00A8132
:10B170000AF82320791C47808FB244F00104A1E72C
:10B1800007EB8703990000220AF823200AEB01034A
:10B1900001F11002083152445144C3F804C0604622
:10B1A0000137FFF795F844F00204BFB28AE7254A59
:10B1B000214B578007EB870E0AEB8E02022118689D
:10B1C0000AF82E10013750601181BFB24EE70222FB
:10B1D000C3F800C09A804FF00109CEE702232B711B
:10B1E00002A9124800F066FC01211748FCF73AFC5E
:10B1F000044600287FF4F2AEFFF75AF9EFE6032386
:10B200002B71EDE700232B71EAE701232B71E7E7B0
:10B2100048F20764E3E648F20A64E0E67C2A00208C
:10B220006C2A0020E0690300C82A0020542B00206B
:10B23000DEC0ADDEFE011EF1682B00206C2B00206D
:10B2400014100010842A0020642B002010230020FA
:10B25000A02A002010B309B370B582B00C460DF1DE
:10B2600006010546FFF7A8F818B948F2096002B0D0
:10B2700070BDBDF806000B4B6E6800EB800003EB61
:10B28000800001210C30FCF7F9FB26606B6801227D
:10B290000C3300206360AA7202B070BD48F20460F3
:10B2A000704700BFA02A002010B310B582B00DF186
:10B2B00006010446FFF780F8B0B1BDF806300E4A2B
:10B2C00003EB830302EB8303DA684AB1A27A3AB153
:10B2D000DA680021013A0846DA60A17202B010BDB6
:10B2E00048F2056002B010BD48F2096002B010BD1E
:10B2F00048F20460704700BFA02A00202DE9F04703
:10B30000514B1B7882B073B3002944D00A884FF6A2
:10B31000FF739A4221D04B88FBB14D6815F00305AD
:10B3200033D1B1F8089009F103039BB240F2FE3229
:10B33000934233D8454A14783CB956891489344429
:10B340001C44A4B2B4F5806F2BD9147D8CB148F2A3
:10B350000665284602B0BDE8F08748F20365284636
:10B3600002B0BDE8F08748F20165284602B0BDE8AA
:10B37000F087D68B948B34441C44A4B2B4F5806F10
:10B38000E5D84FF00108C4460DE048F202652846B2
:10B3900002B0BDE8F08748F20465DAE748F20865D4
:10B3A000D7E7A846AC464FEA8C07674402EB87070D
:10B3B00033440C46824601A925487B8100F04CFBB2
:10B3C0001C22064600210AF0EFF9002E30D002239D
:10B3D0000027A6F814803370B775636833610121C4
:10B3E0001C48FCF74BFBF060238833816388B380F3
:10B3F00001A97781A6F80690154800F05BFBBAF129
:10B40000000F0AD0CAF80470F268134BCAF8002083
:10B410001B898AF80A70AAF8083001210F48FCF746
:10B4200021FB0446002894D1FFF742F8254690E717
:10B430007B89C9F57F4909F1FD099944A7F80A906C
:10B4400048F2076585E700BF7C2A0020A02A00207B
:10B45000542B0020982A0020842A0020642B0020EE
:10B46000A0B1114A1278CAB181B110B40C884FF65C
:10B47000FF7294420DD04A885AB14A6812F0030212
:10B480000FD103235DF8044BFFF7D2BC48F20460F0
:10B49000704748F203605DF8044B704748F2016062
:10B4A000704748F20260F6E77C2A002070B51D4B19
:10B4B0001B7882B00BB34FF6FF73984227D001A9D7
:10B4C0000446194800F0C8FA1C22054600210AF07B
:10B4D0006BF9BDB105230126EC8001A92B702E71FB
:10B4E000114800F0E7FA31461048FCF7BBFA044671
:10B4F00090B10024204602B070BD48F2016420469D
:10B5000002B070BD48F20764204602B070BD48F238
:10B510000364204602B070BDFEF7CAFF204602B0A9
:10B5200070BD00BF7C2A0020542B0020642B00201B
:10B5300010B5194B1B7882B0F3B101A9174800F080
:10B540008BFA1C22044600210AF02EF9F4B10623DE
:10B55000237001A9114800F0ADFA114B1A780AB115
:10B5600001221A7301210F48FCF77CFA044640B10E
:10B570000024204602B010BD48F20164204602B00B
:10B5800010BDFEF795FF204602B010BD48F20764DB
:10B59000204602B010BD00BF7C2A0020542B0020A2
:10B5A000842A0020642B00202DE9F0473A4C2478AF
:10B5B000002C69D0002A6BD0002B69D0B3F804C0EE
:10B5C000BCF1010F16D8354E0CEB8C048A4606EB05
:10B5D00084064FF6FF7E4FF0000834786CB10CF112
:10B5E000010C1FFA8CF4022C9C8006F114064FF01B
:10B5F000010CF2D148F2096032E01C68756805F56B
:10B600008057002C3DD06588033504EB8504BC428F
:10B6100002D3C3F80080E2E725680135F9D06588D8
:10B62000033504EB8505BD42F3D8B4F80490F14529
:10B6300018D0B4F80090B9F1000F13D0A16801310F
:10B6400010D01C60A5888542D8D125885545D5D114
:10B65000A16811601968124B51601B891381002089
:10B66000BDE8F087AF42D4D92C6801342C46D0D045
:10B67000B5F8029009F1030905EB8905AF42D4D270
:10B68000C7E705F10804C2E748F20160BDE8F087AA
:10B6900048F20460BDE8F0877C2A0020A02A002040
:10B6A000842A0020374B1B78002B64D0002965D0FA
:10B6B000002A63D02DE9F0439788012F14D8324D2A
:10B6C00007EB8703814605EB83054FF6FF7C4FF0C0
:10B6D000000E2B785BB10137BBB2022B938005F1D2
:10B6E00014054FF00107F4D148F209602FE0136808
:10B6F0006C6804F58056002B3AD05C88033403EB69
:10B700008403B34202D3C2F800E0E4E71C680134CA
:10B71000F9D05C88033403EB8404B442F3D8B3F863
:10B720000480E04515D0B3F80080B8F1000F10D0C8
:10B73000986801300DD013601C884C45D8D19B68A7
:10B740000B601268114B4A601B890B810020BDE819
:10B75000F083A642D7D9236801332346D3D0B4F867
:10B76000028008F1030804EB8804A642D7D2CAE796
:10B7700004F10803C5E748F20160704748F204602D
:10B78000704700BF7C2A0020A02A0020842A0020C5
:10B79000374B1B78002B64D0002965D0002A63D07A
:10B7A0002DE9F0439788012F14D8324D07EB87031A
:10B7B000814605EB83054FF6FF7C4FF0000E2B789A
:10B7C0005BB10137BBB2022B938005F114054FF03A
:10B7D0000107F4D148F209602FE013686C6804F5A2
:10B7E0008056002B3AD05C88033403EB8403B342C9
:10B7F00002D3C2F800E0E4E71C680134F9D05C88A9
:10B80000033403EB8404B442F3D8B3F80480E04576
:10B8100015D0B3F80080B8F1000F10D0986801304F
:10B820000DD013609C884C45D8D19B680B60126882
:10B83000114B4A601B890B810020BDE8F083A642B2
:10B84000D7D9236801332346D3D0B4F8028008F156
:10B85000030804EB8804A642D7D2CAE704F1080320
:10B86000C5E748F20160704748F20460704700BFC6
:10B870007C2A0020A02A0020842A002020B119B1AF
:10B8800003680B600020704748F20460704700BFF7
:10B890002DE9F84F504B1B78002B00F095800446A3
:10B8A000002800F095801222002109F07DFFDFF8CA
:10B8B0002CE1608821896589DFF8248103237246A1
:10B8C000238000264FF6FF7C4FF0010A8146138942
:10B8D0005089576803449BB2002F43D038684045D5
:10B8E00040D1786800F16E6000F5FF300230012829
:10B8F00038D8B00030440EEB80001D44C768A089E2
:10B90000B944A4F8029057896581C3F580639BB25E
:10B910009842394438BFA38121815768BB680133FD
:10B9200007F1080B07F5805017D07F8903370BEB21
:10B930008707B84245D35B469F88674516D01F8866
:10B94000A7B19F68013711D0A7880137A7805F880A
:10B95000033703EB870398421AD814327EB30020D2
:10B96000BDE8F88F208801382080C2E7B4F806B01F
:10B97000E7890BF1010BA4F806B0B3F802B0033766
:10B980005F44E7815F88033703EB87039842E4D97C
:10B990001F680137E1D05F88033703EB8707B842A0
:10B9A000CAD2C31AC3F38F03E788E08984F810A0D2
:10B9B00001370344E780E3811432002ECFD1012602
:10B9C00085E740F2FE33EFE748F20160BDE8F88F0B
:10B9D00048F20460BDE8F88F7C2A0020A02A0020ED
:10B9E000DEC0ADDE99B110B4B2FBF3F403FB142456
:10B9F000A4B244B9C0E9001484608281C3812046A6
:10BA00005DF8044B704709205DF8044B70470E2029
:10BA1000704700BF82B050E8022FC188B2EB324FAE
:10BA20004FF0000317BF92B241EA014142EA0141DF
:10BA300004E04268B2EB324F08BF012340E8021233
:10BA4000002AE8D18DF807309DF80730002B0CBF95
:10BA50001120002002B0704730B482B050E8013F9E
:10BA60009DB2C48925448489A54228BF2D1B048921
:10BA7000A54202BFBFF32F8F002207E0C5EA0305EE
:10BA800040E80154002CE9D14FF001028DF8032069
:10BA90000193019B9DF803200B602AB10B8800687D
:10BAA000184402B030BC704702F0FF03184602B0E1
:10BAB00030BC70470A884B889A4201D000207047FA
:10BAC00050E8012FC2EA024240E80123002BF7D1DF
:10BAD0000120704730B482B050E8023F1FFAA3F54E
